:1000000050C074C094C372C071C0EFC46FC06EC0E2
:100010006DC06CC06BC06AC069C068C067C08179C0
:100020008D759971A56DB169BD650962155E9D5F9C
:1000300038631367AE6A896E2472BF759A79215A44
:100040002D563952854E357D29811D8511890C61CA
:100050000065B468A86C9C7090748478387C0A51F0
:100060002758845FA166BE6D1B75387C958301029D
:100070000000040000000000010204081020200419
:100080001008020202020202020202020000000044
:1000900036000000000038000000000037003A0180
:1000A000400111241FBECFE5D2E0DEBFCDBF10E07E
:1000B000A0E6B0E0E0E8FEE002C005900D92AC37AB
:1000C000B107D9F721E0ACE7B0E001C01D92A5303F
:1000D000B207E1F710E0C0EAD0E003C02297FE01CA
:1000E000A2D6CE39D107D1F71BD6BEC689CFCF92C3
:1000F000DF92EF92FF92CF936A017B0195E0CC0CE7
:10010000DD1CEE1CFF1C9A95D1F76894C4F88F7023
:10011000C80ED11CE11CF11C60E082E07CD581E0BE
:1001200090E002D560E081E076D581E090E0FCD4FB
:10013000C9E1C0FE02C061E001C060E080E06BD5B3
:1001400081E090E0F1D461E082E065D581E090E06B
:10015000EBD460E082E05FD5F694E794D794C7943F
:1001600081E090E0E1D4C15021F761E081E053D516
:1001700081E090E0D9D460E080E0CF91FF90EF90F3
:10018000DF90CF9048C5CF93DF93E82FF0E0EE0FDC
:10019000FF1FE25EFF4FC591D49140E951E060E05E
:1001A00070E080E0A4DFAE0160E070E06C5F7F4F44
:1001B00081E0DF91CF919BCFFF920F931F93CF935D
:1001C000DF9361E081E027D560E083E0EBD460E07D
:1001D00083E021D561E081E0E5D461E080E0E2D414
:1001E00061E082E0DFD480E090E028D68F3F59F0D4
:1001F00080E090E023D6F82E80938D000EE810E08A
:10020000C4E1D0E017C060E080E090E01FD661E676
:1002100070E08EE890E00BD60EE810E0C4E1D0E08C
:10022000F80161918F01CE0111D62196CE31D10511
:10023000B9F7DECFCE0102D6F80181938F01219666
:10024000CE31D105B9F781E0809398008F2D9BDFE7
:1002500061E085E0E0D460E084E0A4D440E855E2C9
:1002600060E070E089E990E0DF91CF911F910F91FC
:10027000FF9059C320E04FEF64E089E990E025C387
:1002800089E990E0CEC28F929F92AF92BF92CF92B7
:10029000DF92EF92FF920F931F93CF93DF93CDB72F
:1002A000DEB72A970FB6F894DEBF0FBECDBF89E93F
:1002B00090E0E8D1181619060CF0B6C0E0D3625EE3
:1002C0007F4F8F4F9F4F6093850070938600809380
:1002D00087009093880065E070E080E090E0FFD3B5
:1002E00019821A821B821C82FE01359686E0DF018C
:1002F0001D928A95E9F7C12CE12C00E0D12C10E089
:1003000089E990E0BFD102978CF189E990E02CD186
:10031000FF24F394FC0C823071F411111CC089E9A4
:1003200090E022D1E82E0E5F080FB7E2B817B8F1BF
:1003300052E0F52E19C0833061F41123E9F089E908
:1003400090E012D1B82E42E0F42EFC0CCC24C394E1
:100350002BC0112389F0E1E0F0E0EC0FFD1FED0D63
:10036000F11D8083080FD39411E006C065E070E0B2
:1003700080E090E0B4D3FC2C82D3809085009090F4
:100380008600A0908700B0908800681579058A05DE
:100390009B0540F4EAE0ED1528F0CF2CB1CFB12C4D
:1003A00011E001C0B12CC12CE1E0F0E0EC0FFD1F29
:1003B000ED0DF11D108289E990E064D1181619063F
:1003C00064F489E990E0D0D089E990E040D161E01F
:1003D00070E080E090E083D3EECFB01225C0F2E071
:1003E000FF1510F5112301F1CC20F1F0E0928D0002
:1003F000BE016F5F7F4F8EE890E019D56E2D80E0D3
:1004000090E024D53EE8E32E30E0F32E04E110E046
:10041000D7016D917D01C80119D50F5F1F4F0E31B6
:100420001105B1F781E001C080E02A960FB6F8947B
:10043000DEBF0FBECDBFDF91CF911F910F91FF9017
:10044000EF90DF90CF90BF90AF909F908F900895E6
:10045000CF92DF92EF92FF9280917D00811107C0D1
:100460008091600080937C0081E080937D0083E038
:1004700007D4019751F4809160009FEF980F9E3F41
:1004800008F081E08093600002C0109260008091CB
:10049000600081111FC08091980081110BC081E024
:1004A0008093980066E970E080E090E018D3809136
:1004B0008D0069DEE4D220ED37E040E050E05FD40B
:1004C00021E0693E73408105910508F420E0622F28
:1004D00085E0A1D38091600081508430E0F51092D6
:1004E0009800D1DE8823B1F083E080936000C7D20A
:1004F0006854744F8F4F9F4F6093890070938A00A8
:1005000080938B0090938C0061E085E084D3809190
:100510008D0039DEC0908900D0908A00E0908B0079
:10052000F0908C00ACD2C616D706E806F90698F40F
:1005300081E080936000A3D22AEF30E040E050E0F9
:100540001ED421E06E3771058105910508F420E085
:10055000622F85E060D38091600080937C00FF90E3
:10056000EF90DF90CF9008952091FA003091FB003A
:1005700028173907B9F49091B8008091B9009817FD
:1005800089F0E091B800F0E0E654FF4F80812091BF
:10059000B80030E02F5F3F4F2F7333272093B80010
:1005A00090E008958FEF9FEF08951F93CF93DF930F
:1005B000DC015C968D919C915D97009749F481E0F8
:1005C00090E013969C938E93129780E090E03BC04E
:1005D0005196ED91FC91529750962C915097322F55
:1005E00030951FB75E964C915E9741FB772770F967
:1005F00041FD6095F8944081772311F0422B01C0B2
:1006000043234083EC012197F1F748E0508160FFDC
:1006100002C0522B01C053235083EC012197F1F704
:100620006695415099F78081772311F0832301C0AB
:10063000822B80831FBF5C968D919C915D97019763
:10064000F1F781E090E0DF91CF911F910895089537
:100650002091FA003091FB002817390781F490911E
:10066000B8008091B900981751F0E091B800F0E01F
:10067000E654FF4F8081992787FD909508958FEF6D
:100680009FEF08952091FA003091FB002817390759
:1006900069F48091B9002091B80090E0805C9F4F90
:1006A000821B910960E470E057D3089580E090E0E8
:1006B0000895E091FA00F091FB00E817F90769F45A
:1006C000A389B4899C918589809589238C93109204
:1006D000FB001092FA0081E0089580E00895CF9326
:1006E000DF93EC018A8D9B8D892BE9F08091FA00D4
:1006F0009091FB008C179D07B1F0009709F0D9DFAE
:100700008E8D8E7F8E8F1092B9001092B800D0938C
:10071000FB00C093FA00EB89FC8980819D89892BBD
:10072000808381E001C080E0DF91CF9108951F9226
:100730000F920FB60F9211242F933F934F935F9315
:100740006F937F938F939F93AF93BF93EF93FF9399
:10075000E091FA00F091FB00309709F451C0868DCA
:10076000A685B785958581FF04C08C91892329F4DE
:1007700047C08C91892309F043C0A389B4899C9117
:100780008589809589238C93868997890197F1F7CC
:10079000208D318DA685B785758558E040E0C9016B
:1007A0000197F1F7842F90E095958795482F6C91EC
:1007B000672309F04068515091F7868D81FD40957F
:1007C0008091B90090E001968F7399272091B8002D
:1007D000281749F0A091B900B0E0A654BF4F4C9340
:1007E0008093B90003C0868D8160868F828D938D42
:1007F0000197F1F7A389B4898C919589892B8C9302
:10080000FF91EF91BF91AF919F918F917F916F91E8
:100810005F914F913F912F910F900FBE0F901F90BE
:1008200018952FE630E0FC013183208342CF1F93DF
:10083000CF93DF93EC01162F6E8D6695617081E08A
:100840006827812FE8D161E0812FACD1812F90E022
:10085000FC01E858FF4FE491E88BFC01EE57FF4F95
:10086000E491F0E0EE0FFF1FEE56FF4F859194915B
:100870009A8B898BDF91CF911F9108951F93CF930E
:10088000DF93EC01162F60E0812F8CD18E8D81FDDE
:1008900003C061E0812FBFD11C87812F90E0FC0154
:1008A000E858FF4FE491ED87FC01EE57FF4FE491CC
:1008B000F0E0EE0FFF1FE457FF4F859194919F8763
:1008C0008E87DF91CF911F910895FF920F931F9311
:1008D000CF93DF93EC01F62E522F1B821A8208EE83
:1008E00013E020E030E00C831D832E833F838FE6EE
:1008F00090E0998388831F8A1E8A198E188E1B8E1A
:100900001A8E1D8E1C8E8E8D8E7F50FB81F98E8FE0
:10091000642FCE018CDF6F2DCE01DF91CF911F911F
:100920000F91FF90ABCFCF93DF93EC019A01AB0116
:100930001B8E1A8E198E188E1F8A1E8A60E874E824
:100940008EE190E03ED2C9012430310520F0B9019A
:100950006350710902C061E070E07D8F6C8F6C851F
:10096000653008F03EC0B901769567956431710530
:1009700018F06351710902C061E070E07F8B6E8BEB
:10098000069718F0C901059702C081E090E0998FA1
:10099000888FC90163E070E0CED1969587959695D2
:1009A00087958D30910510F00C9702C081E090E0A2
:1009B0009B8F8A8F8BB780628BBF2C85253018F474
:1009C00085E390E002C080E090E09C8B8B8B81E01F
:1009D00001C0880F2A95EAF78D8B8C8D9D8D01972C
:1009E000F1F7CE01DF91CF917ACE1F920F920FB621
:1009F0000F9211242F933F938F939F93AF93BF93A5
:100A00008091FD009091FE00A091FF00B091000147
:100A10003091FC0026E0230F2D3720F40296A11D13
:100A2000B11D05C029E8230F0396A11DB11D209318
:100A3000FC008093FD009093FE00A093FF00B09314
:100A400000018091010190910201A0910301B091F8
:100A500004010196A11DB11D809301019093020133
:100A6000A0930301B0930401BF91AF919F918F9127
:100A70003F912F910F900FBE0F901F9018952FB799
:100A8000F8946091FD007091FE008091FF009091BC
:100A900000012FBF08953FB7F89480910101909114
:100AA0000201A0910301B091040122B708B601FE32
:100AB00005C02F3F19F00196A11DB11D3FBF66274C
:100AC000782F892F9A2F620F711D811D911D43E090
:100AD000660F771F881F991F4A95D1F70895CF9207
:100AE000DF92EF92FF92CF93DF936B017C01D3DF14
:100AF000EB01C114D104E104F10479F01BD1CBDF87
:100B00006C1B7D0B683E7340A0F381E0C81AD108CE
:100B1000E108F108C851DC4FECCFDF91CF91FF9095
:100B2000EF90DF90CF9008958330910528F0880FE3
:100B3000991F04970197F1F7089578948AB5826018
:100B40008ABD8AB581608ABD83B7826083BF83B75F
:100B5000816083BF89B7826089BF80B7826080BFB0
:100B600080B7816080BF329A319A3098379A089561
:100B7000823081F018F4813051F00895833019F0FB
:100B8000843009F008958CB58F7D8CBD08958AB5A9
:100B90008F7702C08AB58F7D8ABD08958CB5806439
:100BA0008CBD0895CF93DF9390E0FC01E858FF4F90
:100BB0002491FC01EE57FF4F8491882349F190E086
:100BC000880F991FFC01E856FF4FA591B4918E56EE
:100BD0009F4FFC01C591D4919FB7611108C0F89453
:100BE0008C91209582238C93888182230AC0623065
:100BF00051F4F8948C91322F309583238C93888113
:100C0000822B888304C0F8948C91822B8C939FBF95
:100C1000DF91CF9108950F931F93CF93DF931F928E
:100C2000CDB7DEB7282F30E0F901E259FF4F8491AC
:100C3000F901E858FF4F1491F901EE57FF4F049165
:100C40000023C1F0882319F0698392DF6981E02FC6
:100C5000F0E0EE0FFF1FEE56FF4FA591B4919FB746
:100C6000F8948C91611103C01095812301C0812BF0
:100C70008C939FBF0F90DF91CF911F910F9108959B
:100C8000CF93DF93282F30E0F901E259FF4F849191
:100C9000F901E858FF4FD491F901EE57FF4FC49185
:100CA000CC2389F0811164DFEC2FF0E0EE0FFF1F01
:100CB000E457FF4FA591B4912C912D2381E090E052
:100CC00021F480E002C080E090E0DF91CF910895B0
:100CD000CF92DF92EF92FF920F931F93CF93DF9308
:100CE0007C016A01EB0100E010E00C151D0571F0BC
:100CF0006991D701ED91FC910190F081E02DC70140
:100D00000995892B19F00F5F1F4FEFCFC801DF91B5
:100D1000CF911F910F91FF90EF90DF90CF900895AA
:100D20000CDF3CDF49DAC0E0D0E092DB2097E9F34A
:100D300067D9FBCF08950024552704C0080E591F1A
:100D4000880F991F009729F076956795B8F371057C
:100D5000B9F7802D952F089597FB072E16F4009470
:100D600006D077FD08D049D007FC05D03EF4909519
:100D700081959F4F0895709561957F4F0895A1E2E9
:100D80001A2EAA1BBB1BFD010DC0AA1FBB1FEE1F05
:100D9000FF1FA217B307E407F50720F0A21BB30B50
:100DA000E40BF50B661F771F881F991F1A9469F7CC
:100DB00060957095809590959B01AC01BD01CF0128
:100DC0000895052E97FB16F400940FD057FD05D01B
:100DD000D6DF07FC02D046F408C050954095309508
:100DE00021953F4F4F4F5F4F089590958095709597
:100DF00061957F4F8F4F9F4F0895AA1BBB1B51E1F9
:100E000007C0AA1FBB1FA617B70710F0A61BB70B7A
:100E1000881F991F5A95A9F780959095BC01CD011F
:100E20000895EE0FFF1F0590F491E02D0994FB014A
:100E3000DC0101900D920020E1F70895E199FECFC9
:100E40009FBB8EBBE09A99278DB30895262FE19919
:100E5000FECF1CBA9FBB8EBB2DBB0FB6F894E29A97
:100E6000E19A0FBE0196089510E0C0EAD0E003C0F9
:100E7000FE01D9DF2296C23AD107D1F7F894FFCF0D
:100E8000FF43414C4C205349474E0000000000D521
:0C0E90000268064203B402280327030096
:00000001FF
